:020000040800F2
:10000000000008243D3A000861260008692600081F
:100010006B2600086D2600086F260008000000000F
:100020000000000000000000000000007126000831
:1000300073260008000000007526000877260008D7
:100040008D3A00088D3A00088D3A00088D3A000874
:100050008D3A00088D3A00088D3A00088D3A000864
:100060008D3A00087F2600088D3A0008892600088E
:100070008D3A00088D3A00088D3A00088D3A000844
:100080008D3A00088D3A00088D3A00088D3A000834
:100090008D3A00088D3A00088D3A0008992600082C
:1000A0008D3A00088D3A00088D3A00088D3A000814
:1000B0008D3A00088D3A00088D3A00088D3A000804
:1000C0008D3A00088D3A00088D3A00088D3A0008F4
:1000D0008D3A00088D3A00088D3A00088D3A0008E4
:1000E000A52600088D3A0008000000008D3A00089F
:1000F0008D3A0008E12600088D3A00088D3A000884
:100100008D3A0008FD2600088D3A00088D3A000857
:100110008D3A00088D3A00088D3A00088D3A0008A3
:100120008D3A00088D3A00088D3A00088D3A000893
:100130008D3A00088D3A00088D3A00088D3A000883
:1001400000000000000000000000000000000000AF
:100150008D3A00088D3A00088D3A00088D3A000863
:100160008D3A00088D3A00088D3A00088D3A000853
:100170008D3A00088D3A00080D2700088D3A0008D6
:100180008D3A00088D3A00088D3A00088D3A000833
:100190008D3A00088D3A00088D3A00088D3A000823
:1001A0008D3A00088D3A00088D3A00088D3A000813
:1001B0008D3A00088D3A00088D3A00088D3A000803
:1001C0008D3A00088D3A00088D3A00088D3A0008F3
:1001D0008D3A00081D2700088D3A00088D3A000866
:1001E0008D3A00088D3A00088D3A00088D3A0008D3
:1001F0008D3A00088D3A00088D3A00088D3A0008C3
:100200008D3A00088D3A00088D3A00088D3A0008B2
:100210008D3A00082D270008412700088D3A000874
:100220008D3A00088D3A00088D3A00080000000061
:100230008D3A00088D3A0008000000008D3A000851
:100240008D3A00088D3A00088D3A00088D3A000872
:100250008D3A00088D3A00088D3A00088D3A000862
:100260008D3A00088D3A00088D3A00088D3A000852
:100270008D3A00088D3A00088D3A00080000000011
:100280008D3A00088D3A00088D3A00080000000001
:08029000000000008D3A000897
:1002A00010B5054C237833B9044B13B10448AFF3B0
:1002B00000800123237010BD08030024000000000B
:1002C0007470010808B5034B1BB103490348AFF331
:1002D000008008BD000000000C03002474700108B9
:1002E000034613F8012B002AFBD1181A0138704776
:1002F00001F0FF01102A2BDB10F0070F08D010F8D7
:10030000013B013A8B422DD010F0070F42B3F6D1DA
:10031000F0B441EA012141EA014122F007047FF0F3
:1003200000070023F0E80256083C85EA010586EA4A
:10033000010685FA47F5A3FA87F586FA47F6A5FA86
:1003400087F68EB9EED1F0BC01F0FF0102F0070292
:1003500032B110F8013B013A83EA010313B1F8D13D
:100360000020704701387047002D06BF354603381E
:10037000073815F0010F07D1013015F4807F02BF57
:10038000013015F4C03F0130F0BC0138704700BFA8
:1003900053B94AB9002908BF00281CBF4FF0FF31EC
:1003A0004FF0FF3000F074B9ADF1080C6DE904CEE8
:1003B00000F006F8DDF804E0DDE9022304B0704740
:1003C0002DE9F047089D04468E46002B4DD18A4208
:1003D000944669D9B2FA82F252B101FA02F3C2F13B
:1003E000200120FA01F10CFA02FC41EA030E9440CC
:1003F0004FEA1C48210CBEFBF8F61FFA8CF708FBED
:1004000016E341EA034306FB07F199420AD91CEBC4
:10041000030306F1FF3080F01F81994240F21C81F6
:10042000023E63445B1AA4B2B3FBF8F008FB10333E
:1004300044EA034400FB07F7A7420AD91CEB040473
:1004400000F1FF3380F00A81A74240F20781644443
:10045000023840EA0640E41B00261DB1D4400023C8
:10046000C5E900433146BDE8F0878B4209D9002D2C
:1004700000F0EF800026C5E9000130463146BDE8B6
:10048000F087B3FA83F6002E4AD18B4202D3824220
:1004900000F2F980841A61EB030301209E46002DCF
:1004A000E0D0C5E9004EDDE702B9FFDEB2FA82F224
:1004B000002A40F09280A1EB0C014FEA1C471FFA82
:1004C0008CFE0126200CB1FBF7F307FB131140EA69
:1004D00001410EFB03F0884208D91CEB010103F136
:1004E000FF3802D2884200F2CB804346091AA4B2F8
:1004F000B1FBF7F007FB101144EA01440EFB00FECC
:10050000A64508D91CEB040400F1FF3102D2A64530
:1005100000F2BB800846A4EB0E0440EA03409CE7CF
:10052000C6F12007B34022FA07FC4CEA030C20FA7C
:1005300007F401FA06F31C43F9404FEA1C4900FA9C
:1005400006F3B1FBF9F8200C1FFA8CFE09FB181119
:1005500040EA014108FB0EF0884202FA06F20BD98C
:100560001CEB010108F1FF3A80F08880884240F2DC
:100570008580A8F102086144091AA4B2B1FBF9F020
:1005800009FB101144EA014100FB0EFE8E4508D91B
:100590001CEB010100F1FF346CD28E456AD90238A0
:1005A000614440EA0840A0FB0294A1EB0E01A14285
:1005B000C846A64656D353D05DB1B3EB080261EBF3
:1005C0000E0101FA07F722FA06F3F1401F43C5E9CD
:1005D000007100263146BDE8F087C2F12003D84003
:1005E0000CFA02FC21FA03F3914001434FEA1C4745
:1005F0001FFA8CFEB3FBF7F007FB10360B0C43EA37
:10060000064300FB0EF69E4204FA02F408D91CEBE6
:10061000030300F1FF382FD29E422DD902386344E4
:100620009B1B89B2B3FBF7F607FB163341EA034184
:1006300006FB0EF38B4208D91CEB010106F1FF38D3
:1006400016D28B4214D9023E6144C91A46EA0046CA
:1006500038E72E46284605E70646E3E61846F8E65C
:100660004B45A9D2B9EB020864EB0C0E0138A3E7A5
:100670004646EAE7204694E74046D1E7D0467BE786
:10068000023B614432E7304609E76444023842E7FE
:10069000704700BF22B330B513460289541E9C42F6
:1006A0003DD09BB203F1FF3C1FFA8CFCB0F806E092
:1006B0008CB274452CBF00240124624501D9002C62
:1006C0004ED14FF0000C01339BB29A4201D9002C5D
:1006D00064D1002010EB0C0048BF0130401030BD49
:1006E000C3888AB29A4216D20289012A15D90279A0
:1006F0000A2A0AD0102A08D0082A01D00020704700
:10070000026812FA81F1C85C704713FA81F103683C
:1007100033F8110070470020704700207047013BFC
:100720009BB2C4881FFA81FCA44501D29A4201D829
:100730000020D4E702790A2A0BD0102A09D0082A0F
:1007400001D00020CBE7026804FB032313F80C0060
:10075000C5E789B204FB0313026832F81300BEE751
:1007600005790A2D13D0102D11D0082D03D04FF08C
:10077000000C6046AEE78CB205680EFB0C5515F810
:1007800004C001339BB29A4211D80020A2E78DB277
:100790000EFB0C5C056835F81CC094E702790A2A48
:1007A0000BD0102A09D0082A01D0002092E789B284
:1007B00002680EFB0323585C8CE789B20EFB03131F
:1007C000026832F8130085E710B501B30B46B0F8A4
:1007D00006C00CF1FF3199423BD09BB2591E89B241
:1007E0001FFA82FE8C456ED90489744540F29280CE
:1007F00004790A2C5BD0102C59D0082C4CD0013332
:100800009BB29C4575D84FF0000E704685E0C188BC
:1008100001291AD9048993B29C4218D903790A2B69
:100820000BD0102B09D0082B01D0002077E092B21A
:10083000006801FB0201487871E092B202FB01F10D
:100840000131036833F8110069E0002067E00020FF
:1008500065E0013B9BB29C451AD9048991B28C4258
:1008600018D901790A290CD010290AD0082901D0F9
:10087000002054E092B201680CFB021C1CF803003B
:100880004DE092B20CFB0233026832F8130046E0EE
:10089000002044E0002042E004680CFB0E4414F801
:1008A00001E0591C8BB2634526D3002035E094B299
:1008B0000CFB0411046834F811E0591C8BB29C4500
:1008C0000ED8002029E001339BB29C4528D901892C
:1008D000714503D84FF0000E70461EE04FF0000E39
:1008E00001790A290FD010290DD0082904D0002041
:1008F00013E04FF0000EF3E792B201680CFB021C0C
:100900001CF8030009E092B20CFB0233026832F8D3
:10091000130002E04FF0000E70467044401010BD0E
:100920004FF0000E7046F8E72DE9F04F00290ADD80
:10093000B0F806C00CF1FF338B42C8BF002ACCBF11
:100940000123002308DC01F1FF3C03314FF00008D4
:10095000C646D61CC246E2E0B0F808E00EF1FF340D
:100960009442F0DD89B24D1E1FFA85FA92B2561EEE
:10097000B6B2B64594BF4FF000084FF00108D44519
:1009800094BF0024012414B1B8F1000F21D1002735
:10099000013189B28C4594BF4FF000094FF0010935
:1009A00019EA080838D100231F44013292B2964553
:1009B00094BF00260126344054D100231F4416B1B1
:1009C000B9F1000F6BD10020C01948BF033080106F
:1009D000AEE007790A2F19D0102F17D0082F01D0B9
:1009E0000027D5E707680CFB067717F80A70013176
:1009F00089B28C451ED8013292B2964594BF00262A
:100A0000012614EA060936D10023D7E70CFB06A716
:100A1000056835F81770BBE790F80490B9F10A0F34
:100A200019D0B9F1100F16D0B9F1080F02D0C14694
:100A30000023B9E705680CFB0656765C37440132A3
:100A400092B2964594BF002601260CB1002E71D1BA
:100A500099460023B2E70CFB0616036833F81630FC
:100A6000C146A1E703790A2B12D0102B10D0082B16
:100A700003D00020A8E74FF0000903680CFB023305
:100A800013F80A301F44B9F1000F59D100209BE739
:100A90000CFB02A5036833F8153026468EE7037970
:100AA0000A2B05D0102B03D0082B49D000208BE750
:100AB0000CFB0212036833F8120085E7056807FB98
:100AC0000B5515F8095007E09DB207FB059705681F
:100AD00035F8175000E05546AE4408F101080233DE
:100AE000B34218D0002CFAD0002BF8DBC78867453A
:100AF000F5DD05899D42F2DD4F45ECD91FFA83FBF8
:100B00005D45E8D905790A2DDED0102DDCD0082D01
:100B1000D4D05546E0E70CF1020C8C4506D0531EAC
:100B20006FEA0C04E40F1FFA8CF9DBE79EFBF8F088
:100B3000BDE8F08F03680CFB023313F80A301F4442
:100B400003680CFB0232505C3EE72DE9F043864619
:100B5000002940F3CD80C388581E884240F30A81A3
:100B6000002A40F30781BEF80840601E904240F31F
:100B70000D828EB2701E1FFA80F995B2AC4294BFFE
:100B80004FF000084FF001084B4502D9B8F1000FB3
:100B900026D100208446701C80B2834202D9B8F16D
:100BA000000F48D100229444681E80B2B34294BF23
:100BB00000220122844294BF002602F00106002E8A
:100BC0005DD100208444681C80B2844201D9002A8F
:100BD00075D1002010EB0C0048BF0330801054E1A9
:100BE0009EF804C0BCF10A0F1CD0BCF1100F19D044
:100BF000BCF1080F01D00020CCE7DEF8000003FBB9
:100C0000050717F809C0701C80B283421DD8681E02
:100C100080B2B34294BF00220122844200D9C2BBF9
:100C20000020CFE71FFA82FC03FB0C90DEF8007077
:100C300037F81000AEE79EF804700A2F17D0102F77
:100C400015D0082F01D00022ADE792B2DEF8007077
:100C500003FB0272125C9444681E80B2B34294BFDC
:100C600000220122844200D99AB90020AAE792B258
:100C700003FB0200DEF8002032F8102093E79EF814
:100C800004200A2A12D0102A10D0082A01D00020ED
:100C9000A0E78AB2DEF8006003FB0060825C944447
:100CA000681C80B2844214D8002093E78AB203FB08
:100CB0000020DEF8002032F81000324682E79EF86D
:100CC00004200A2A0CD0102A0AD0082A01D00020B9
:100CD00080E789B2DEF8002003FB0023585C79E747
:100CE00089B203FB0013DEF8002032F8130071E72D
:100CF00000293FD1C388012B1DD9048990B28442B9
:100D000036D99EF804000A280CD010280AD00828EA
:100D100001D0002010E094B2DEF8000003FB0403D1
:100D2000587809E090B200FB03F30133DEF80000CD
:100D300030F8130000E0002084460123002A40F030
:100D4000A880BEF8062088B2904280F09980BEF854
:100D50000800012840F29B809EF804000A2800F059
:100D60008880102800F0858008287CD0002088E04A
:100D70000020E1E7BEF806301D46581E884240F0CC
:100D80000881481E80B283421DD9BEF8084093B244
:100D90009C421CD99EF804300A2B0CD0102B0AD090
:100DA000082B01D000200FE094B2DEF8003005FBE4
:100DB0000433185C08E093B205FB0300DEF8003052
:100DC00033F8100000E0002084460123B6E700203D
:100DD000FAE797B2DEF8006005FB0766305C013485
:100DE000A4B2A34206D996B2DEF8003005FB063362
:100DF0001B5D31E000232FE01FFA82FC05FB0C0C89
:100E0000DEF8000030F81C000134A4B2A3420DD873
:100E1000002321E00134A4B29C4221D2BEF8083064
:100E2000B34202D80020034616E000209EF80430AA
:100E30000A2B07D0102B05D0082BD4D000230BE0B1
:100E40000020F3E793B205FB0344DEF8003033F8EB
:100E5000143001E00020034603EB000C02236DE791
:100E600000200346F8E7DEF8000010FA81F1885C04
:100E700007E012FA81F1DEF8002032F8110000E0FC
:100E8000002060440133B0FBF3F0BDE8F0830020A4
:100E9000F7E7BEF80850681E904219D092B2501E73
:100EA00080B2BEF806608CB2B4422CBF002401248C
:100EB000854200D994BB00200746013292B2954288
:100EC00001D9002C49D10020384460440233DAE7CC
:100ED000013A92B2BEF806008CB2844201D2954229
:100EE00003D8002060440133CDE79EF804400A2C6B
:100EF0000CD0102C0AD0082C01D00020F2E789B2C7
:100F0000DEF8004000FB0242505CEBE789B200FBD8
:100F10000212DEF8001031F81200E3E79EF80470C8
:100F20000A2F12D0102F10D0082F02D000273846D9
:100F3000CAE78FB2DEF8004006FB0040C75D013211
:100F400092B2954213D80020BEE78FB206FB007024
:100F5000DEF8007037F81000AEE79EF804000A28AB
:100F60000CD010280AD0082801D00020ACE789B2A4
:100F7000DEF8000006FB0202505CA5E789B206FB22
:100F80000212DEF8001031F812009DE7BEF80630BC
:100F90001D468CB2601E80B296B29842BFF43AAF42
:100FA000BEF80870B7427FF655AF9EF804600A2E6F
:100FB0003FF422AF102E3FF41FAF082E3FF409AFCD
:100FC000601C84B29C42FFF43BAF0020034643E721
:100FD00010B403780C78234414782344064C84FB23
:100FE00003434FEAD30C80F800C09B080B7082F8D3
:100FF00000C05DF8044B7047565555552DE9F04F2C
:101000008BB0824689460692DDF854B000228DF8F6
:1010100027208DF826208DF825209A1F1D2A30D8EC
:10102000DFE802F00F0F0F0F0F0F272727272727C3
:101030002929292929292B2B2B2B2B2B2D2D2D2D04
:101040002D2D0122013B222B32D8DFE803F01C2991
:101050002B2D2F311C292B2D2F311C292B2D2F31DE
:101060001C292B2D2F311C292B2D2F311C292B2DE9
:101070002F000222E6E70322E4E70422E2E705224A
:10108000E0E70022DEE70121BBF80830002B00F08A
:101090009F814B1C059300230393531C079358E136
:1010A0000221F1E70321EFE70421EDE70521EBE75A
:1010B0000021E9E7049A002A00F080819AF80420D0
:1010C0000A2A00F0C780102A00F0C480082A00F025
:1010D000BA8000238DF82730029A01995046FFF715
:1010E00034FD8DF82600029A01995046FFF71CFC4A
:1010F0008DF8250022E0049A002A0CBF4FF0420C24
:101100004FF0470C9AF804200A2A00F00D81102AAB
:1011100000F00A81082A78D04FF000038DF82630BD
:10112000029A01995046FFF7B5FA8DF82700029A06
:1011300001995046FFF748FB8DF82500149B092BB9
:1011400000F2A180A44BA54A1360A44BD3ED006A22
:101150009DF8273007EE103AB8EE477A27EE267A48
:10116000FCEEC77A17EE903A8DF827309DF82630BE
:1011700007EE103AB8EE477A27EE267AFCEEC77AE9
:1011800017EE903A8DF826309DF8253007EE903A0C
:10119000F8EE677A67EEA67AFCEEE77A17EE903AF9
:1011A0008DF825300DF125020DF126010DF12700F6
:1011B000FFF70EFFBBF80620B24240F28980BBF871
:1011C0000830434540F284809DF82530D9089DF8C9
:1011D00027309B085B0143EAC1239DF8261043EAB0
:1011E000D1031BB29BF804100A295FD010295DD0EF
:1011F00008296DD1BDF80C60A9B2DBF8000002FB34
:101200000600435464E04FF0520CDAF800200298D4
:1012100000FB03235B5C8DF82630BCF1520F7FF49A
:101220007FAF029A01995046FFF7CEFA8DF827005A
:10123000029A01995046FFF72DFA8DF825007DE7B7
:101240004FF0520C70E0DAF80020029800FB032304
:101250005B5C3FE7019A029901FB0323DAF8002067
:1012600032F8133036E7DAF80020029800FB032347
:101270005B5C8AE0019A029901FB0323DAF8002003
:1012800032F8133081E0149B0A3B132B03D8544BE4
:10129000524A136059E7149B1E3B272B94BF4FF013
:1012A0007F534FF07E534D4A13604EE7BDF80C005C
:1012B000A9B202FB0012DBF8001021F8123007E09F
:1012C000ABF80660BAF808304B4598BFABF8088019
:1012D00001353C44A4B2BBF80620ABB29A422CD9EB
:1012E000AEB2BAF80630A342EAD9BAF808204A45A5
:1012F000E8D90194214614F0010F7FF4DBAE049A83
:10130000002A36D0019A12F0010F7FF4F4AE9AF859
:101310000420082A3FF477AF072A47D90A2A8FD03A
:10132000102A43D14FF0520C019A029901FB03237A
:10133000DAF8002032F813306DE7039B0133039392
:10134000059A91441FFA89F9BBF808209BB29A428A
:101350003ED9BDF80C80BBF80630002BEDD0CDF89F
:10136000089009F001030493BDF81C70069C002549
:10137000B6E79AF804200A2A3FF47CAF102A3FF41B
:1013800079AF082A3FF46FAF049B8DF82530029A9D
:1013900001995046FFF7D9FB8DF82600029A019972
:1013A0005046FFF7C1FA8DF82700C7E64FF000035B
:1013B0008DF8263035E74FF0420CA3E6019A12F083
:1013C000010FF8D1049A002AA1D14FF0470C99E6F9
:1013D00000200BB0BDE8F08F000060410000002449
:1013E00000002041002800F0C7808446002900F05A
:1013F000C380038993FBF2F30B81C08890FBF2F06A
:10140000C8809CF8040008714BB12DE9F04F83B0FF
:101410000027BE46B846961C531C01939AE07047BD
:10142000DCF800000AFB0E0010F803A007E00AFB3E
:101430000E3ADCF8000030F81AA000E0C246088935
:10144000A04206D908790A2825D0102823D00828D8
:101450001BD003F1010A1FFA8AFA02F101091FFAEF
:1014600089F9BCF806B0DA4529D2BCF80800704505
:1014700052D99CF804000A281AD0102818D008283D
:101480000FD0C2461CE0C246D9E7086809FB050038
:1014900000F802A0DDE709FB0529086820F819A07B
:1014A000D7E7DCF800000BFB0E0010F80AA007E0FD
:1014B0000BFB0EAADCF8000030F81AA000E0C246D0
:1014C000B1F806B0D94509D20889A04206D90879F1
:1014D0000A2829D0102827D008281FD033449BB2CF
:1014E000BCF80600984225D9023292B2B1F80690B3
:1014F00091451FD9BCF806A09A459FD9BCF80800B1
:101500007045C0D99CF804000A2890D010288ED0CD
:10151000082885D0C24692E7C246D1E708680BFB8F
:10152000050000F809A0D9E70BFB0599086820F829
:1015300019A0D3E71EF0030F16D0019B9E441FFA9B
:101540008EFEBCF80830734513D901370A89BBB247
:101550009A420ED9BCB2B1F80690B9F1000FE9D0A9
:1015600042464346BDB2C5E70EF1010E1FFA8EFE9C
:10157000E7E703B0BDE8F08F704720B119B1016013
:10158000826000224260704788B138B51446054633
:1015900021B14068AB681B1A934200D238BD2B685A
:1015A000184415F097F86A6822446A60F6E77047B5
:1015B00008B1406870470020704708B10068704764
:1015C0007047000008B50B480B4B036000234360D5
:1015D00020228260C36003614361836103624362CE
:1015E0008362C362036305F0C3FF00B908BD00F066
:1015F0008DFCFBE724030024000002482DE9F041A4
:101600008CB000230793089309930A930B93026805
:10161000664B9A4202D00CB0BDE8F0810446644BA0
:10162000D3F8DC2042F00102C3F8DC20D3F8DC2040
:1016300002F001020092009AD3F8E02042F010027A
:10164000C3F8E020D3F8E02002F010020192019AE2
:10165000D3F8E02042F00202C3F8E020D3F8E02003
:1016600002F002020292029AD3F8E02042F0400215
:10167000C3F8E020D3F8E02002F040020392039A7E
:10168000D3F8E02042F08002C3F8E020D3F8E02055
:1016900002F080020492049AD3F8E02042F004029F
:1016A000C3F8E020D3F8E02002F004020592059A86
:1016B000D3F8E02042F00102C3F8E020D3F8E03094
:1016C00003F001030693069B4FF00308CDF81C803E
:1016D000022708970D260B9607A9364808F00EFB3F
:1016E0004FF4507307930897002509950A950B96B8
:1016F00007A9314808F002FB4FF4007307930897DD
:1017000009950A950B9607A92C4808F0F7FA4FF4AB
:1017100082430793089709950A950B9607A92848CD
:1017200008F0ECFAC0230793089709950A950B96E1
:1017300007A9244808F0E2FA40230793089709957F
:101740000A950B9607A9204808F0D8FA1F48204BA5
:1017500003604B2343608560C5604FF48063036181
:101760004FF4805343614FF4804383614FF480739F
:10177000C3614FF40033036204234362C0F828803E
:101780004FF40003C362056306F0C6FA58B90F4B65
:10179000A3649C63002211464E2005F043FE4E20B8
:1017A00005F074FE37E700F0B1FBF0E700000248F7
:1017B0000044025800100258000402580018025851
:1017C000001C02580008025800000258740300244C
:1017D00010000240704770472DE9F843074602FBAE
:1017E00001F50F4805F08EFFAD0805240C4E4FF0B3
:1017F00002092B463A464946304605F009FF804625
:1018000048B1304605F07EFF631E13F0FF04F0D1AF
:101810004046BDE8F883034B1B22DA60F8E700BFBF
:10182000240300240000024808B5024805F06AFFBE
:1018300008BD00BF2403002400B583B00B4BD3F8D0
:10184000D82042F00102C3F8D820D3F8D83003F0F2
:1018500001030193019B002211460B2005F0E2FDDC
:101860000B2005F013FE03B05DF804FB00440258A2
:101870002DE9F04F8FB0002409940A940B940C9436
:101880000D94BF4BD3F8E02042F01002C3F8E020E3
:10189000D3F8E02002F010020092009AD3F8E02082
:1018A00042F00202C3F8E020D3F8E02002F0020286
:1018B0000192019AD3F8E02042F04002C3F8E02000
:1018C000D3F8E02002F040020292029AD3F8E0201E
:1018D00042F00802C3F8E020D3F8E02002F008024A
:1018E0000392039AD3F8E02042F00402C3F8E02008
:1018F000D3F8E02002F004020492049AD3F8E02026
:1019000042F00102C3F8E020D3F8E02002F0010227
:101910000592059AD3F8E02042F48072C3F8E020E3
:10192000D3F8E02002F480720692069AD3F8E02001
:1019300042F08002C3F8E020D3F8E02002F08002F9
:101940000792079AD3F8E02042F02002C3F8E02083
:10195000D3F8E03003F020030893089BDFF838B297
:10196000224642F21801584608F0ECFADFF82C92B1
:1019700001224FF40041484608F0E4FADFF820A2C3
:1019800022466021504608F0DDFA7E4F22464FF491
:101990002071384608F0D6FADFF8088222464FF464
:1019A0008061404608F0CEFA22460421484608F0FD
:1019B000C9FA42F20803099301250A950B940C9485
:1019C00009A9584608F09AF94FF6A7430993032648
:1019D0000A960B9409A96C4808F090F94FF29F53AE
:1019E00009930A960B9409A9504608F087F94FF617
:1019F000AB2309930A960B9409A9404608F07EF997
:101A000048F2040309930A950B940C9409A94846DB
:101A100008F074F91023099311230A930B940C9680
:101A200009A9584608F06AF949F6A07309930A967D
:101A30000B9409A9584608F061F94FF40063099323
:101A40004FF488130A930B9409A9504608F056F9ED
:101A500040F6FF7309930A960B9409A94B4808F0C6
:101A60004DF94FF4005309934FF488130A934FF044
:101A7000020BCDF82CB009A9454808F03FF9102316
:101A800009930A940B9509A9404608F037F94BF6DB
:101A9000FC6309930A960B9409A93E4808F02EF9B5
:101AA00040F2B97309930A960B9409A9484608F0C5
:101AB00025F94FF6341309930A960B9409A9384671
:101AC00008F01CF9482309934FF488130A930B94E8
:101AD00009A9384608F012F9402309930A950B9595
:101AE0000C9409A9504608F009F9802309930A9536
:101AF0000B940C9409A9384608F000F920230993A7
:101B00000A950B940C9409A9504608F0F7F84FF485
:101B1000806ACDF824A00A940B9409A9384608F0ED
:101B2000EDF84FF4007309930A950B950C9409A9ED
:101B3000384608F0E3F809950A940B9409A914486B
:101B400008F0DCF83E2309930A960B9409A9104883
:101B500008F0D4F8CDF824B00A940B9409A94846AB
:101B600008F0CCF8CDF824A00A950B940C9409A9A0
:101B7000404608F0C3F84FF48073099314E000BFA7
:101B80000044025800140258000402580020025871
:101B900000080258001C02580010025800000258A9
:101BA00000180258000C02580A94CDF82CB009A96C
:101BB000404608F0A3F822462146092005F032FCF1
:101BC000092005F063FC22462146172005F02AFC77
:101BD000172005F05BFC22462146282005F022FC58
:101BE000282005F053FC0FB0BDE8F08F08B515486C
:101BF000154B0360A3F17863A3F57E23A3F24F2373
:101C00004360002383600122C260036143618361FA
:101C1000C361036208F06AFB50B90021094808F06B
:101C200047FF40B90021074808F070FF30B908BDF0
:101C300000F06CF9F1E700F069F9F3E700F066F9FC
:101C4000F5E700BFEC0300240058004010B5B8B021
:101C50000446002133913491359136913791C02259
:101C600002A814F045FD22681B4B9A4201D038B0FF
:101C700010BD08220023CDE9022302A80AF0D0FCFF
:101C800038BB164CD4F8E03043F02003C4F8E03001
:101C9000D4F8E03003F020030093009B0323339338
:101CA000122334930023359302233693042337936E
:101CB00033A90B4808F022F8D4F8E83043F4800345
:101CC000C4F8E830D4F8E83003F480030193019BB2
:101CD000CDE700F01BF9D4E700580040004402585B
:101CE0000014025870B505460E46144604220146FB
:101CF0002046FFF749FC0422A9182046FFF744FCC0
:101D0000A6F10802A9682046FFF73EFC70BD38B571
:101D100005460C46042201462046FFF735FC022208
:101D200005F10C012046FFF72FFC022205F10E0100
:101D30002046FFF729FC0422A9182046FFF724FCBF
:101D4000042205F108012046FFF71EFC38BD38B516
:101D50000546FFF732FC04462846FFF729FC81B20E
:101D6000204614F097FA022005F030FB38BD000041
:101D700010B5ADF5826D04464FF4806201A90DF2F5
:101D80000440FFF7FAFB94B3FA232370224B23613C
:101D9000012221460DF20440FFF7F6FB0122A118B3
:101DA0000DF20440FFF7F0FB042204F10C010DF2E8
:101DB0000440FFF7E9FB6378012B1BD0022B05D110
:101DC0000DF20442E1686068FFF78CFF0DF20440F9
:101DD000FFF7EEFB032813D9042204F110010DF2E2
:101DE0000440FFF7D1FB0DF20440FFF7B0FF0DF503
:101DF000826D10BD0DF204416068FFF788FFE5E7D2
:101E00000DF20440FFF7A3FF042204F110010DF2CC
:101E10000440FFF7B9FBE6E7F4ED01A500B587B094
:101E20008DF8050000230493029301A8FFF7A0FF9B
:101E300007B05DF804FB00B589B0009001910292F3
:101E400002228DF80D2008330693CDF810D003A898
:101E5000FFF78EFF09B05DF804FB00B58BB006906C
:101E6000BDF83000ADF82600ADF824300891079297
:101E700001238DF805301023049306AB029301A8CB
:101E8000FFF776FF0BB05DF804FB00002DE9F04F83
:101E900083B081468A461746BDF830101A4AA2FB25
:101EA00007284FEA582840F2EE3202FB18726AB156
:101EB00008F101080091424640F2EE31FFF7CDFFF4
:101EC00040F2EE3400252E46A34616E0009142462D
:101ED00040F2EE31FFF7C1FF40F2ED339F42EFD801
:101EE00003B0BDE8F08F5C46234631464846FFF715
:101EF000A2FF254401364645F2D20AEB05027B1BC0
:101F00009C42F0D39CB2EFE7614E4A8208B572B6AC
:101F1000064D0126082432462146284608F012F8CC
:101F200000222146284608F00DF8F4E70010025878
:101F300000B59FB04C2200210BA814F0D9FB202241
:101F4000002103A814F0D4FB022009F03DFC00237B
:101F500000933A4BDA6A22F00102DA62DB6A03F09C
:101F600001030093364B9A6942F440429A619B699F
:101F700003F440430093009B314A936913F4005FDC
:101F8000FBD0304BD3F8F42042F00202C3F8F42027
:101F9000D3F8F43003F002030193019B0023029372
:101FA000274B9A6942F440429A619B6903F440438B
:101FB0000293224BDA6A42F00102DA62DB6A03F032
:101FC00001030293029B1E4A936913F4005FFBD046
:101FD00001230B934FF480330C9302231493159336
:101FE00005221692C02217921893142219921A935E
:101FF00008231B9300231C931D930BA809F014FCCA
:10200000C0B93F23039303230493002305930823BC
:1020100006934023079308934FF4806209920A9332
:10202000042103A80AF05AF830B909F057FF1FB08D
:102030005DF804FBFFF76AFFFFF768FF0004005834
:10204000004802580044025808B505F07FF9174DC2
:1020500000246C60AC60EC602C616C613022214625
:1020600005F1180014F044FBAC65FFF761FFFFF7C2
:10207000FFFBFFF7E1FBFFF7B9FD00F00DF900F002
:10208000E5F901F05DFCFFF79DFA10F017F801F09B
:10209000A1FB00F0ADF901F083FB01F067FB14F048
:1020A000A5F82C46204601F049FBFBE760570724C2
:1020B00040B139B19BB2038123B10160426000237A
:1020C00083814381704708B1034601B97047F0B579
:1020D000B0F80CC00CEB4C0C056805EBCC000C68A0
:1020E000D1F804E08F68CE6845F83C40C0F804E0C1
:1020F0008760C6600C69D1F814E00461C0F814E090
:102100009889596841F820209A89013292B29A81BF
:102110001989914201D800229A81F0BD28B18446E4
:1021200019B143898089984200D1704730B503EBDB
:102130004303DCF8004004EBC30054F833E0436889
:102140008568C468C1F800E04B608D60CC60D0F851
:1021500010E04369C1F810E04B61BCF80A10DCF8EC
:10216000043053F821301360BCF80A3001339BB2BD
:10217000ACF80A30BCF808209A4202D80023ACF828
:102180000A3030BD034640B180895A8990423CBF35
:102190001B89C018801A80B270470020704730B188
:1021A000002280F8282080F829200122C26270478E
:1021B000E0B10346D1B110B4026B012A01D900226B
:1021C00002631A6B02EB820C03EB8C000C6843F881
:1021D0002C404C6844608C688460CC68C460096999
:1021E000016101321A635DF8044B70477047844601
:1021F000C8B1036B6BB1034600210A461A605A60EE
:102200009A60DA601A6101311433DCF830008842D8
:10221000F4D80023CCF830308CF8283001228CF828
:102220002920CCF82C3070470346A8B1C16A006B56
:10223000814212D293F829200132D2B2824228BFC1
:10224000002283F8292093F8290000EB800003EB9B
:1022500080000131D9627047704700207047034603
:1022600030B190F8280000EB800003EB800070474D
:102270007047034678B1C26A6AB190F828100131FC
:10228000C9B280F82810006B814202D3002183F884
:102290002810013ADA627047084B094A1A60002296
:1022A0005A604FF4805199604FF48041D9601A61AF
:1022B00001225A6102229A61704700BF38580724F0
:1022C000007000522DE9F043BBB004460021359167
:1022D0003691379138913991C02204A814F008FA48
:1022E00022683B4B9A4202D03BB0BDE8F0834FF4EA
:1022F00080320023CDE9042302230693282207928B
:10230000089309930A93C0230B934FF480331893D7
:1023100004A80AF085F9002857D12E4BD3F8D42011
:1023200042F48032C3F8D420D3F8D42002F48032AF
:102330000192019AD3F8E02042F00402C3F8E020B1
:10234000D3F8E02002F004020292029AD3F8E020CF
:1023500042F00802C3F8E020D3F8E03003F00803AD
:102360000393039B4FF48053359302273697002441
:102370003794032638960C253995DFF8609035A9F7
:10238000484607F0BBFC4FF47063359336974FF027
:102390000108CDF8DC803896399535A9484607F014
:1023A000ADFC042335933697CDF8DC80389639950B
:1023B00035A9094807F0A2FC22462146312005F044
:1023C00031F8312005F062F88EE7FFF79FFDA4E7B2
:1023D0000070005200440258000C025800080258D5
:1023E00008B5014601480CF04DFC08BD38580724DB
:1023F00008B51448144B03604FF480034360002376
:1024000083600722C260036143614FF08062826192
:102410004FF0E042C261036243628362C3624FF0E5
:10242000804242638363C363036443648364C3641D
:102430000365436583650CF0DBFF00B908BDFFF75A
:1024400065FDFBE7B8580724003C004008B5174875
:10245000174B03604FF4800343604FF4C023836045
:102460000723C3604FF0007303614FF08073436133
:102470004FF0806383614FF04053C36100230362D8
:1024800043628362C3624FF0804242638363C363EB
:10249000036443648364C3640365436583650CF02C
:1024A000A7FF00B908BDFFF731FDFBE7405907243E
:1024B000003401402DE9F041BCB0044600213791C1
:1024C000389139913A913B91C02206A814F010F945
:1024D0002368544A934205D0534A93426ED03CB08D
:1024E000BDE8F0814FF480520023CDE9062302239A
:1024F00010930C22119201221292139314934FF411
:10250000406315934FF4007316934FF400531E93DA
:1025100006A80AF085F800284DD1444BD3F8E820EE
:1025200042F40042C3F8E820D3F8E82002F4004265
:102530000192019AD3F8E02042F00202C3F8E020B1
:10254000D3F8E02002F002020292029AD3F8E020CF
:1025500042F00802C3F8E020D3F8E03003F00803AB
:102560000393039B10233793022538950023399357
:1025700003243A944FF00608CDF8EC802C4F37A98D
:10258000384607F0BBFB0823379338950126399668
:102590003A94CDF8EC8037A9384607F0AFFB4023DA
:1025A0003793389539963A9405233B9337A92148B8
:1025B00007F0A4FB93E7FFF7A9FCAEE74FF4005246
:1025C0000023CDE9062306A80AF02AF830BB174BF2
:1025D000D3F8F02042F40052C3F8F020D3F8F020F2
:1025E00002F400520492049AD3F8E02042F0100260
:1025F000C3F8E020D3F8E03003F010030593059B07
:102600004423379302233893002339933A930523C5
:102610003B9337A9084807F071FB60E7FFF776FCAA
:10262000D5E700BF003C00400034014000440258A0
:1026300000040258000C02580010025882B0074BE8
:10264000D3F8F42042F00202C3F8F420D3F8F430B7
:1026500003F002030193019B02B07047004402584B
:1026600008B509F0C9FEFEE7FEE7FEE7FEE7FEE774
:1026700070477047704708B504F096FE08BD08B56E
:10268000082007F065FC08BD08B5024806F01EFBEF
:1026900008BD00BF7403002408B5402007F058FCB3
:1026A00008BD000008B50C4B93F83D30DBB2022B9F
:1026B00008D14FF4006007F04BFC4FF4005007F0D6
:1026C00047FC08BD054802F00DFF0028F1D0024884
:1026D0000DF09CFCEDE700BFF05B0724C05707241A
:1026E00008B5044AD36D0133D36503480DF005FDE9
:1026F00008BD00BF60570724585B072408B502488F
:102700000CF0B6FC08BD00BF3858072408B50248D5
:1027100005F04CF808BD00BF2403002408B50248AA
:1027200008F04AFC08BD00BFC498072408B500F0B3
:102730002FFA02480DF0E1FC08BD00BFA45B07249E
:1027400010B5094B9B6E33B1084802F0CBFE10B1B7
:10275000054B9B6E9847064C20460DF0CEFC20465C
:102760000DF0ACFC10BD00BF60570724C057072414
:10277000F05B072408B503460C4A126852B10B4AB5
:10278000106803440A4A0B49521A934206D8074A72
:10279000136008BD054A08491160F0E713F070FFA7
:1027A0000C2303604FF0FF30F3E700BFC859072444
:1027B000000008240010000000A00724274AD2F8D7
:1027C000883043F47003C2F88830254B1B6803F04F
:1027D0000F03062B06D8224A136823F00F0343F099
:1027E000070313601F4B1A6842F001021A600022AF
:1027F0001A6119681C4A0A401A60194B1B6813F0C9
:10280000080F06D0164A136823F00F0343F007039E
:102810001360144B00229A61DA611A6213499962BB
:102820001349D962134919635A639963DA631964C6
:102830005A64196821F4802119601A660E4B1A68CF
:102840000E4B1340B3F1005F03D20D4B0122C3F8CE
:1028500008210C4B43F2D2021A60704700ED00E0F1
:1028600000200052004402587FEDF6EA0002020206
:102870000000FF01800201010010005C0000FFFF6A
:102880000080005100400052024B012283F870206A
:10289000704700BF6057072410B50446C164026545
:1028A000012380F85430002380F8553004F088FD6F
:1028B000A06410BD10B5002480F8544080F8554045
:1028C000846422460821044807F03CFB2246042188
:1028D000024807F037FB10BD0010025800000258F4
:1028E00070B50446856C04F06BFD0646854218D829
:1028F000451B94F854304BB394F85530A3B1E36CB6
:10290000AB422DD800220821164807F01BFB0022FD
:102910000421154807F016FB002384F85530A664FF
:102920001EE0ED430544E4E7236DAB4218D80122D5
:1029300004210D4807F006FB01220821094807F091
:1029400001FB012384F85530A66409E00022082128
:10295000044807F0F7FA00220421034807F0F2FACE
:1029600070BD00BF001002580000025810B582B0C0
:10297000064B002101915A680092054A946B1B682E
:102980000A460448A04702B010BD00BF9C5D072462
:1029900058010024645D072408B503F037FA03F0FA
:1029A000AFF908B9012008BDFFF7E0FF0020FAE702
:1029B00010B582B0C3880489C4F15002C3F1A001EC
:1029C000019400930368C2F34702C1F34701024830
:1029D00004F0DEF902B010BD645D07242DE9F04378
:1029E00083B00E46032820D0042820D0022814BF2C
:1029F00004271C27DFF8448000240194102500954B
:102A00000C4BD3F83890D8F800303A4621460A48A3
:102A1000C847019600952B46B8F800203946204655
:102A200003F08AFB03B0BDE8F0832C27E2E73C27E4
:102A3000E0E700BF58010024645D07249C5D072483
:102A400000B583B007490020FFF7C8FF4FF6FF73BA
:102A50000093A02316220021034804F0EFF903B0ED
:102A60005DF804FB9C700108645D072430B587B0F5
:102A700004461546132201A813F0AAFE01A8FDF78B
:102A80002FFC2A46054901AB184413F06DFE01A93D
:102A90002046FFF7A3FF07B030BD00BFB0700108AC
:102AA00038B505460C46084602F0E8FF40B11A4921
:102AB0000320FFF793FF002385F89C30002038BDEA
:102AC00003F04CF8024615490320FFF7CFFF01231E
:102AD00085F89C300A23124A124905F17400FFF769
:102AE000E7FA1148D0ED037AB8EE676B9FED087BEB
:102AF00026EE076B07EE904AB8EE677B86EE075B23
:102B0000BCEEC55B80ED035A0DF036FCD6E700BF86
:102B10000000000000408F40B8700108C870010834
:102B2000D05A0724E0590724A45B072408B590F87D
:102B30009C300BB9002008BD02F0FCFF01480DF0ED
:102B400065FAF7E7A45B072408B590F89C300BB949
:102B5000002008BD02480DF0B1FA02F0D7FFF7E7F8
:102B6000A45B072410B5044603F000F901F014F843
:102B700004F06EFB00224021044807F0E3F92046F0
:102B8000FFF7E2FFFEF750FE002010BD00180258CC
:102B900010B5114C204602F06BFE104B1B6893EDF4
:102BA000097AB8EE477B9FED0A6B27EE067BBCEEF9
:102BB000C77B54F8283C4FF47A7217EE101A02FBC8
:102BC00003122146A4F11000FFF77DFA10BD00BFEB
:102BD0009A9999999999C93FE4570724585B072412
:102BE00030B58FB004461546104800F0B5FFA06020
:102BF000C28A44F288639A4202D175B900200AE081
:102C000001AC0B4D0FCD0FC42B68238001A902200E
:102C1000FFF7E4FE01200FB030BD44F288620549A1
:102C20000220FFF723FF0020F5E700BFEC0300249C
:102C3000D4700108E870010808B500220321FFF7ED
:102C4000CFFF08BD10B5044600F0C8FF0A2004F00D
:102C5000BDFB01232374002010BD70B50C4600B1EC
:102C600021B92078003818BF012070BDC3689E6864
:102C700000F0A2FF054600F099FF024629463046C3
:102C8000FEF7AAFD2070ECE770B58AB00446037A1F
:102C900043B994F87030002B6AD1237D012B7BD08F
:102CA0000AB070BD08258DF80C500023ADF8103027
:102CB000ADF80E30454B029301220421444807F041
:102CC00041F901222946434807F03CF9237D63B1CD
:102CD000002525722A4608213E4807F033F92A4686
:102CE00004213B4807F02EF9D3E700F07BFF0546AF
:102CF000022202A93848FEF775FBBDF81010BDF896
:102D00000E3003FB01F29DF80C0000FB02F2002ADA
:102D1000B8BF0732314E0091D21002993068FFF7E8
:102D2000B5F83368013333600320FFF777F82C4E92
:102D3000019600951523002211462748FEF75EF9FB
:102D40003046FFF735FE05AD62682649284613F088
:102D50000BFD01950C23009310233C22052108460E
:102D600003F0EAF904F1D401201DFFF776FFAFE785
:102D7000002584F87050201DFFF764FF4FF4967112
:102D8000284603F005F8FFF7F1FDFF20FFF746F8AE
:102D900004F016FBA06580E704F012FBA36DC01AD7
:102DA00063287FF67DAF022323752046FFF7DAFE06
:102DB0004FF47A7211462046FFF76EFD0023A3659B
:102DC00084F87030042323706AE700BF00000030ED
:102DD0000000025800100258CC590724DC5907247F
:102DE000FC5A0724F470010870B506460D4600F041
:102DF000DDFE044600F0E0FE04B110B901242046D7
:102E000070BD3046FFF71EFF29463046FFF725FF0D
:102E10002C780CB10224F2E700F0DCFE00233374BE
:102E20003360ECE70000000008B504F0C9FA1C4B61
:102E30001B68C01AB0F57A7F21D21A4A1368013391
:102E40001360194B01221A72184A126892ED096A2E
:102E50001A695268DB6D4FF47A7101FB03F307EED8
:102E6000103AB8EE477BB8EE466B9FED0B5B06EE73
:102E7000057BBCEEC77B17EE103A136008BD04F06B
:102E80009FFA074B1860074B1968074A51600022E8
:102E90001A60D2E7AFF300809A9999999999C93F3E
:102EA000085B0724D859072460570724585B072478
:102EB00070B582B004F0CCF917210E4804F0E0F9A7
:102EC000A8B10D4D002401946B6800930B4B9E6BD1
:102ED0002B68224621460A48B0470A4B019310232B
:102EE00000932A880421204603F026F9FEE702B069
:102EF00070BD00BFEC0300249C5D07245801002432
:102F0000645D0724FC70010810B5044602F066FAFF
:102F100040B109490420FFF761FD022384F8243001
:102F2000012007E00220FFF75BFA0028F1D101231E
:102F300084F8243010BD00BF0C71010890F82530D2
:102F4000012B01D00020704710B50446034812F051
:102F50006BFF022384F82530002010BDF87207248F
:102F600070B590B0044600F021FE054600F024FE46
:102F7000064600F027FE009033462A460D4903A876
:102F800013F0F2FB94F82550012D02D0002010B070
:102F900070BD03A8FDF7A4F9024604F1180303A9C4
:102FA000054812F05FFD0028F1D0032384F8253096
:102FB0002846ECE720710108F87207242DE9F04754
:102FC00005460C4600F0F2FD814600F0F5FD824614
:102FD00023681C4A1068186023691860E3686268F7
:102FE00012681A6095F82530012B07D0012405F1ED
:102FF000A000FFF73EF92046BDE8F08705F118076D
:10300000DFF844803B4608222168404612F02AFD42
:1030100006463B460AFB09F2A168404612F022FD33
:103020000644F6B23B460822E168404612F01AFD1B
:10303000341814F0FF04DAD0032385F82530002477
:10304000D5E700BF34710108F87207242DE9F04379
:103050008BB006460023099300F1840400F1740844
:103060001B4B009308934046FFF78CF810F0FF07C6
:103070002BD00025DFF85C9009AA21464046FFF7D7
:103080004DF8099B01930DF1080C20686168A26856
:10309000E368ACE80F0020696169ACE8030006F161
:1030A000180324226946484612F0DCFC024620B987
:1030B0000135EBB2BB42DFD303E0032386F82530B2
:1030C000012210460BB0BDE8F0833A46F9E700BF95
:1030D0006D70755FF872072438B50546FFF76EFF0F
:1030E00004462846FFF7B2FF2044C0B238BD0000B6
:1030F000A1B110B582B00446944608460E2A01D804
:1031000002B010BD238C0093054B064A0CF1FF3131
:1031100013F0F6FA236A01332362F1E7704700BF28
:103120003C7101084871010870B590F82450012DD8
:1031300002D00225284670BD044690F8253013F0D1
:10314000FD0F16D100F12C0651B9322231460A4842
:1031500012F0AAFA48B9012284F825200546E9E7C9
:103160001A223146FFF7C4FFEFE7032384F8253026
:10317000E0E70225DEE700BFF872072438B5044611
:10318000037A93B994F82530032B3CD094F870302F
:10319000002B70D1237D012B77D094F8D4301BB154
:1031A000237D002B00F08F8038BD012204214B4885
:1031B00006F0C8FE01220821494806F0C3FE00239C
:1031C00023722569237D73B194F82430012B15D027
:1031D00000220821424806F0B5FE002204213F48A3
:1031E00006F0B0FECEE704F1A000FFF71DF8206165
:1031F00004F1D401201DFFF730FDE5E72946204604
:10320000FFF76AFFE4E7A36A062B05D8012284F8DA
:1032100025201344A362B9E70025A5622046FFF7E5
:103220008DFE02F0E9F884F824502046FFF76CFE8A
:103230002A4608212A4806F085FE2A460421274806
:1032400006F080FE94F82430012B05D0032384F887
:1032500025300723A36299E729462046FFF764FF3C
:1032600004F1A000FEF7E0FF206104F1D401201D6D
:10327000FFF7F3FC8AE7201DFFF7E4FC04F0A0F859
:10328000A065002384F8703084E704F099F8A36DFA
:10329000C01A632881D9022525752046FFF74EFE06
:1032A0002046FFF75FFC4FF4FA7211462046FFF705
:1032B000F3FA0023A36584F870302570E3650948AC
:1032C0000CF0FCFE69E704F1A000FEF7ADFF206101
:1032D00004F1D401201DFFF7C0FC65E7000002588F
:1032E00000100258585B072470B506460D46084684
:1032F000FCF7F6FF044602462946304613F054FA1E
:10330000F0B905463046FCF7EBFF844219DA631E3C
:103310003344013E30442E460B4C4FF0010C02E08A
:103320007EB983420DD013F8012F115D11F0040F07
:10333000F6D005EB8505303A02EB45056646F0E729
:103340000025284670BD00BFAB8001082DE9F04381
:1033500083B000AF0646ADF59D6D68460023FB7156
:103360006C460DF2E2416B4600221A605A609A6088
:10337000DA601A615A611A7619338B42F5D1FB1D56
:103380003222192102F066F8D0B9FB79F3B103EBD0
:10339000830303EB830303EB04080025DFF830907D
:1033A00049462046FFF7A0FF854238BF054619343D
:1033B0004445F5D1013535620C37BD46BDE8F08393
:1033C000FB790BB90025F6E70025F3E70025F2E7C6
:1033D0003C710108F8B52DED028B06460F461546E7
:1033E00002F016F808EE100A02F028F807EE100AAC
:1033F000B8EE488ADFED146AC8EE267AB8EE477A4E
:1034000067EE877AFCEEE77A17EE903AC5ED007A20
:103410000E4CA4FB0323DB0A33604FF461612A687E
:1034200001FB13230A4AA2FB03235B093B603068BC
:103430002A6801FB1022C3EB0313A2EB83032B606A
:10344000BDEC028BF8BD00BF90D6664BC5B3A29110
:103450008988888830B587B000F1A0052846FEF736
:10346000C6FE2846FEF79BFE114C0194231D0293D5
:1034700004F10803049304F10C0305930D4B03932B
:1034800001A92846FEF794FE04F11003019304F10C
:103490001403029304F1180304931C340594064B9F
:1034A000039301A92846FEF783FE002007B030BD34
:1034B0004057072440040024C0AD032430B58DB02C
:1034C0000446836D43B194F870301BB1424B1B78B6
:1034D000002B67D00DB030BDFA2003F077FF01223A
:1034E00004213E4806F02EFD012208213C4806F04A
:1034F00029FD012240213B4806F024FD3A4B01936F
:103500003A4B0093C8234FF40052394904F160004C
:1035100001F0CEFFFFF740FA2F4D2B7818442870AA
:10352000FFF78EFA01220021201DFFF759FB2B78AF
:10353000184428702046FFF78DFF2B781844287018
:10354000C8212046FFF7ACFA2046FFF7DDFC2B78B8
:103550001844C0B2287080B103F032FFA065002586
:1035600084F870502A4608211D4806F0EBFC2A46D4
:1035700004211A4806F0E6FCA5E704AA03A902A85C
:10358000FFF728FF049B0093039B029A194905A8A3
:1035900013F0EAF805A90420FFF720FA2046FFF708
:1035A000D5FED9E7002208210D4806F0CBFCFFF735
:1035B000DDF9002384F8253002222270A36584F807
:1035C00070302046FFF7CEFA4FF4FA7211462046CB
:1035D000FFF762F97EE700BFF85A0724000002589F
:1035E0000010025800180258F05B072489280008D0
:1035F0000008025850710108F8B50446FFF770F949
:1036000094F8703003B9F8BD2046FFF753F9002253
:103610000821204806F096FC012240211E4806F0B1
:1036200091FC271D3846FFF707FB02F0EFFB4FF434
:103630009671192002F0ACFBFFF798F9002626726C
:103640002046FFF707FF04F1A000FEF708FE206107
:10365000124D83682B6000F0A9FAE88000F0ACFA04
:10366000288108232B710E4B0E4A1A60A022DA80A3
:1036700050221A8110221A712546032305F8D43BE3
:10368000FFF716FC29463846FFF7AEFB84F870605A
:10369000B9E700BF0010025800180258CC5907249F
:1036A000FC5A07240000003070B50446FFF718F9F3
:1036B00094F8703003B970BD1E4E30460CF0FEFC1D
:1036C000336800255D6230460CF0A0FCE5652046BD
:1036D000FFF7F0F801224021174806F033FC25726D
:1036E0002546052305F8043B2846FFF7A5FA2046A2
:1036F000FFF7B0FE04F1A000FEF7B1FD206194F8E1
:103700002430012B0DD02046FFF710FAFFF7D0FB35
:1037100004F1D4012846FFF767FB002384F87030DA
:10372000C9E701212046FFF7FFFC2046FFF718FC00
:10373000E9E700BF585B07240018025808B5037872
:10374000052B06D8DFE803F0030506090C0FFFF789
:10375000B5FE08BDFFF750FFFBE7FFF795FAF8E766
:10376000FFF7A2FFF5E7FFF709FDF2E708B50A4802
:103770000A4B03604BF6803343600023836041F2C1
:103780008832C2600361802383610CF0F5FD00B9CB
:1037900008BDFEF7BBFBFBE7585B07240020004099
:1037A00008B50A480A4B036045F6C053436000233E
:1037B00083600A22C2600361436183610CF0DCFD17
:1037C00000B908BDFEF7A2FBFBE700BFA45B07241E
:1037D0000044014008B50A480A4B036045F6C0534F
:1037E0004360002383604FF6FF72C2600361436150
:1037F00083610CF0C1FD00B908BDFEF787FBFBE754
:10380000F05B07240048014000B585B003682F4AEB
:1038100093420BD02E4A934216D02E4A934229D07F
:103820002D4A93423CD005B05DF804FB2B4BD3F8F6
:10383000F02042F00102C3F8F020D3F8F03003F09A
:1038400001030093009BEEE7244BD3F8E82042F4F9
:103850008072C3F8E820D3F8E83003F48073019352
:10386000019B002211462D2003F0DCFD2D2003F0EA
:103870000DFED8E7194BD3F8F02042F40032C3F81C
:10388000F020D3F8F03003F400330293029B0022BF
:103890001146752003F0C6FD752003F0F7FDC2E761
:1038A0000E4BD3F8F02042F48022C3F8F020D3F876
:1038B000F03003F480230393039B0022114676200B
:1038C00003F0B0FD762003F0E1FDACE7000001401D
:1038D00000200040004401400048014000440258DC
:1038E00000B587B0002301930293039304930593DB
:1038F0000268104B9A4202D007B05DF804FB0E4BF1
:10390000D3F8E02042F01002C3F8E020D3F8E03012
:1039100003F010030093009B4FF4804301931223A4
:103920000293022304930123059301A9034806F09F
:10393000E5F9E1E700000140004402580010025898
:1039400010B59AB0002416941794189419941394EF
:10395000149415940C940D940E940F941094119447
:1039600012942C22214601A812F0C2FE3148324B9B
:1039700003604BF68033436084606323C36004615B
:10398000446184610CF0F8FC002841D14FF480536D
:10399000169316A927480CF03BFE00283BD125487A
:1039A0000CF01AFD002839D10023139314931593BA
:1039B00013A920480DF0D2F8002832D160230C93CF
:1039C00031230D9302230E9300231093119312932E
:1039D0000C220CA917480CF071FD28BB00230193A1
:1039E00002930393049305934FF4005206920793B6
:1039F00008934FF0007209920A930B9301A90D48A6
:103A00000DF00AF998B90B48FFF76AFF1AB010BD1C
:103A1000FEF77CFABAE7FEF779FAC0E7FEF776FA26
:103A2000C2E7FEF773FAC9E7FEF770FAD6E7FEF7CA
:103A30006DFAE8E70C5B072400000140DFF834D0A2
:103A4000FEF7BCFE0C480D490D4A002302E0D45895
:103A5000C4500433C4188C42F9D30A4A0A4C0023D8
:103A600001E013600432A242FBD312F00FFEFEF716
:103A7000EBFA70470000082400000024040300242F
:103A8000F08101080803002400A00724FEE70000DD
:103A900000B585B0030A8DF80C308DF80D000B7859
:103AA0008DF80E30074803690093032303AA017BB6
:103AB000006806F075FC003818BF012005B05DF8FD
:103AC00004FB00BF3C5C072430B585B00D46030AFB
:103AD0008DF80C308DF80D000A4C236900930223F9
:103AE00003AA217B206806F05BFC23690093012375
:103AF0002A46217B206806F017FD003818BF0120F8
:103B000005B030BD3C5C072408B5064B1B7B6C2B15
:103B100001D0012008BD00F002F9024BD88200203C
:103B2000F8E700BF3C5C072410B50A4C00224FF4B4
:103B30000071204606F006FA642003F047FC0122DB
:103B40004FF40071204606F0FDF90A2003F03EFC18
:103B500010BD00BF0014025810B50E4C206021713A
:103B6000642323616C232373FFF7DEFFFFF7CCFF91
:103B7000E28A44F288639A4205D0064B00221A7307
:103B8000DA82044810BD20460523237600F004F9AC
:103B9000F7E700BF3C5C072408B500224FF4007132
:103BA000014806F0CFF908BD00140258014B9B688C
:103BB000D88B70473C5C0724014B9B68188C70477E
:103BC0003C5C0724024B9B68B3F85800704700BF69
:103BD0003C5C072408B501F009FA08BD08B501F0FE
:103BE00085F808BD08B501F0EBFB08BD0B688363E1
:103BF0004B6803658B68C36443640B8BA0F8583033
:103C0000A0F85C30CB69C3634B8BC3864B8A0384BB
:103C10000B8AC3838B8AC382CB8A03838B8CA0F8E5
:103C20005E30CB8CA0F860300B8DA0F8623091F83C
:103C3000203080F8233091F8213080F8243091F83A
:103C4000223080F82530704730B583B004460D46E9
:103C5000C1F306238DF807300DF10701FFF718FFB8
:103C60008DF80750601C0DF1070180B2FFF710FFBF
:103C700003B030BD30B583B004460D46C1F30143F7
:103C80008DF807300DF10701FFF702FF2B0A8DF8C1
:103C90000730601C0DF1070180B2FFF7F9FE8DF8C7
:103CA0000750A01C0DF1070180B2FFF7F1FE03B031
:103CB00030BD30B583B005460C46C1F303438DF8E3
:103CC00007300DF10701FFF7E3FE230A8DF80730F7
:103CD000681C0DF1070180B2FFF7DAFE24F00F0433
:103CE0008DF80740A81C0DF1070180B2FFF7D0FE48
:103CF00003B030BD30B583B004460D460B0A8DF8D5
:103D000007300DF10701FFF7C3FE8DF80750601C67
:103D10000DF1070180B2FFF7BBFE03B030BD10B557
:103D200082B00DF1070143F20A00FFF7CDFE9DF8C6
:103D3000074024020DF1070143F20B00FFF7C4FE18
:103D40009DF80700204480B202B010BD08B50328DA
:103D500007D8DFE800F0020C07110A490A48FFF70C
:103D600045FF08BD09490848FFF740FFF9E7084942
:103D70000548FFF73BFFF4E706490348FFF736FF26
:103D8000EFE700BFF4000024900000243800002476
:103D90000C000024640000242DE9F04F83B0FC4B9C
:103DA00083600079FFF7D2FF01258DF807500DF1F0
:103DB000070140F20310FFF76BFE1E2003F006FB25
:103DC00000248DF807400DF1070143F23860FFF73A
:103DD0005FFE8DF807400DF107014FF44070FFF7CB
:103DE00057FE542140F20130FFF784FF8DF8074061
:103DF0000DF1070140F20330FFF74AFE03278DF86B
:103E000007700DF107014FF44170FFF741FE8DF887
:103E100007500DF1070140F20530FFF739FE8DF82C
:103E200007500DF1070140F20630FFF731FE8DF823
:103E300007400DF1070140F20A30FFF729FE8DF827
:103E400007400DF1070140F20B30FFF721FE5A2128
:103E50004FF44370FFF74EFF04268DF807600DF115
:103E6000070140F20E30FFF713FE8DF807500DF1F9
:103E7000070140F20F30FFF70BFE8DF807400DF100
:103E8000070140F21130FFF703FE8DF807500DF1E6
:103E9000070140F21230FFF7FBFD8DF807400DF1EE
:103EA000070140F21E30FFF7F3FD4FF020038DF8BD
:103EB00007300DF107014FF44050FFF7E9FDE02313
:103EC0008DF807300DF1070143F20200FFF7E0FD26
:103ED00032238DF807300DF1070143F21800FFF788
:103EE000D7FD93238DF807300DF1070143F2200031
:103EF000FFF7CEFD8DF807700DF1070143F22100A9
:103F0000FFF7C6FD8DF807500DF1070143F22200BF
:103F1000FFF7BEFD4FF008088DF807800DF107018F
:103F200043F23100FFF7B4FD8DF807400DF10701B2
:103F300043F23F00FFF7ACFDF1238DF807300DF1A0
:103F4000070143F20530FFF7A3FD8DF807600DF17F
:103F5000070143F20730FFF79BFD29238DF8073057
:103F60000DF1070143F20930FFF792FD4FF4C04114
:103F70004FF45450FFF79DFE8DF807600DF10701D7
:103F800043F20350FFF784FD8DF807400DF1070160
:103F900043F20450FFF77CFD8DF807400DF1070157
:103FA00043F20550FFF774FD8DF807400DF107014E
:103FB00043F20650FFF76CFD802143F20750FFF7F4
:103FC00059FE214643F20A50FFF773FE802143F267
:103FD0000D50FFF74FFE214643F21050FFF769FEE8
:103FE000802143F21350FFF745FE214643F216505D
:103FF000FFF75FFE802143F21950FFF73BFE214699
:1040000043F21C50FFF755FE802143F21F50FFF78B
:1040100031FE4FF4006143F22250FFF715FE4FF4DA
:10402000006143F22450FFF70FFE4FF4006143F2AA
:104030002650FFF709FE4FF4006143F22850FFF7C6
:1040400003FE4FF4006143F22A50FFF7FDFD8DF8A7
:1040500007400DF1070143F20260FFF719FD8DF8EB
:1040600007400DF1070143F20660FFF711FD8DF8DF
:1040700007400DF1070143F20760FFF709FD122326
:104080008DF807300DF1070143F20960FFF700FDDD
:104090004FF040028DF807200DF1070143F20A604E
:1040A000FFF7F6FC8F238DF807300DF1070143F27F
:1040B0000860FFF7EDFC8DF807400DF1070143F2B2
:1040C0001160FFF7E5FCF7238DF807300DF10701CC
:1040D00043F21360FFF7DCFC58238DF807300DF135
:1040E000070143F21660FFF7D3FC99238DF80730E0
:1040F0000DF1070143F21960FFF7CAFC60238DF848
:1041000007300DF1070143F21B60FFF7C1FC7A2372
:104110008DF807300DF1070143F21C60FFF7B8FC82
:1041200079238DF807300DF1070143F21E60FFF788
:10413000AFFC4FF0020A8DF807A00DF1070143F222
:104140001F60FFF7A5FC8DF807400DF1070143F252
:104150003260FFF79DFC10278DF807700DF1070105
:1041600043F23360FFF794FC8DF807700DF10701FF
:1041700043F23460FFF78CFC8DF807700DF10701F6
:1041800043F23560FFF784FC15238DF8073001E01A
:10419000900000240DF1070143F23660FFF778FC30
:1041A00086238DF807300DF1070143F24660FFF7D3
:1041B0006FFC0B238DF807300DF1070143F24A60C5
:1041C000FFF766FC8DF807700DF1070143F20370ED
:1041D000FFF75EFC37238DF807300DF1070143F23E
:1041E0000A70FFF755FC8DF807400DF1070143F207
:1041F0000570FFF74DFC63238DF807300DF10701C3
:1042000043F20670FFF744FC3C238DF807300DF1B4
:10421000070143F20970FFF73BFC8DF807500DF1E1
:10422000070143F20B70FFF733FC30238DF80730A2
:104230000DF1070143F20C70FFF72AFC24238DF8DF
:1042400007300DF1070143F21070FFF721FC0C233A
:104250008DF807300DF1070143F21170FFF718FCDC
:104260008DF807400DF1070143F21670FFF710FCBF
:1042700028238DF807300DF1070143F22070FFF776
:1042800007FC4FF07B0B8DF807B00DF1070143F2EF
:104290002970FFF7FDFB6FF07B018DF807100DF122
:1042A0000700014643F22A70FFF7F2FB4FF0BD0909
:1042B0008DF807900DF10700014643F22B70FFF7D0
:1042C000E7FB6FF043008DF807000DF1070C614626
:1042D00043F22C70FFF7DCFB4FF0520C8DF807C057
:1042E0000DF1070E714643F22E70FFF7D1FB0E233E
:1042F0008DF807300DF1070E714643F23C70FFF761
:10430000C7FB33238DF807300DF1070E714643F2DA
:104310003E70FFF7BDFB8DF807700DF1070E71467B
:1043200043F24370FFF7B4FB88238DF807300DF19B
:10433000070E714643F24470FFF7AAFB43238DF842
:1043400007300DF1070E714643F24A70FFF7A0FBEC
:104350008DF807400DF1070E714643F24C70FFF7E0
:1043600097FB23238DF807300DF1070E714643F2BA
:104370004E70FFF78DFB8DF807B00DF1070E7146FB
:1043800043F25170FFF784FB6FF07B018DF807104B
:104390000DF1070143F25270FFF77AFB8DF8079099
:1043A0000DF1070143F25370FFF772FB6FF043000A
:1043B0008DF807000DF1070143F25470FFF768FB19
:1043C0004FF0520C8DF807C00DF1070143F2567003
:1043D000FFF75EFB8DF807400DF1070143F25C70BB
:1043E000FFF756FB8DF807400DF1070143F26070AF
:1043F000FFF74EFB8DF807400DF1070143F26170A6
:10440000FFF746FB8DF807400DF1070143F262709C
:10441000FFF73EFB8DF807400DF1070143F2637093
:10442000FFF736FB8DF807400DF1070143F264708A
:10443000FFF72EFB8DF807600DF1070143F267705F
:10444000FFF726FB8DF807600DF1070143F2687056
:10445000FFF71EFB8DF807800DF1070143F269702D
:10446000FFF716FB8DF807800DF1070143F26A7024
:10447000FFF70EFB4FF020038DF807300DF1070119
:1044800043F26B70FFF704FB8DF807400DF1070155
:1044900043F26C70FFF7FCFA8DF807400DF107014D
:1044A00043F26D70FFF7F4FA8DF807400DF1070144
:1044B00043F26E70FFF7ECFA8DF807400DF107013B
:1044C00043F27370FFF7E4FA51238DF807300DF1D2
:1044D000070143F27470FFF7DBFA8DF807900DF1D6
:1044E000070143F27670FFF7D3FA8DF807900DF1CC
:1044F000070143F27770FFF7CBFA18238DF80730E6
:104500000DF1070143F28170FFF7C2FA25238DF800
:1045100007300DF1070143F28370FFF7B9FA414606
:104520004FF46050FFF7E6FB314643F60200FFF719
:10453000E1FB40F6972143F60400FFF7DBFB40F276
:10454000FB5143F60600FFF7D5FB4FF4286143F615
:104550000800FFF7CFFB4FF4BE6143F60A00FFF7F8
:10456000C9FB4FF4216143F60C00FFF7C3FB40F297
:10457000126143F60E00FFF7BDFB414643F6100003
:10458000FFF7B8FB314643F61200FFF7B3FB8DF897
:1045900007500DF1070143F61400FFF779FA8DF883
:1045A00007500DF1070143F61500FFF771FA214698
:1045B00043F61600FFF79EFB294643F61800FFF767
:1045C00099FB8DF807400DF1070143F62000FFF736
:1045D0005FFA4FF006098DF807900DF1070143F6D9
:1045E0002100FFF755FA8DF807400DF1070143F65A
:1045F0002900FFF74DFA8DF807500DF1070143F63A
:104600002A00FFF745FA8DF807500DF1070143F630
:104610002B00FFF73DFA7F238DF807300DF10701DE
:1046200043F62D00FFF734FA8DF807600DF107010E
:1046300043F63000FFF72CFA8DF807500DF1070113
:1046400043F63600FFF724FA8DF807A00DF10701B5
:1046500043F64100FFF71CFA8DF807800DF10701C2
:1046600043F64600FFF714FA07238DF807300DEBE9
:10467000030143F64700FFF70BFA36238DF80730A6
:104680000DF1070143F68550FFF702FA47F2CB110F
:1046900043F68C50FFF72EFB8DF807400DF1070114
:1046A00043F60A70FFF7F4F971238DF807300DF126
:1046B00007014FF48040FFF7EBF94FF040028DF80F
:1046C00007200DF1070144F20100FFF7E1F98DF831
:1046D00007600DF1070144F20200FFF7D9F9142336
:1046E0008DF807300DF1070144F20300FFF7D0F910
:1046F000214644F20E00FFF7FDFA8DF807400DF158
:10470000070144F21100FFF7C3F98DF807400DF1DE
:10471000070144F21A00FFF7BBF98DF807400DF1CD
:10472000070144F21B00FFF7B3F98DF807400DF1C4
:10473000070144F21C00FFF7ABF98DF807400DF1BB
:10474000070144F21D00FFF7A3F98DF807400DF1B2
:10475000070144F21F00FFF79BF9394644F220009D
:10476000FFF7C8FA40F2CF7144F22200FFF7C2FA15
:104770004FF4166144F22400FFF7BCFA40F66F11C3
:1047800044F22600FFF7B6FA8DF807400DF1070155
:1047900044F22800FFF77CF98DF807A00DF107011E
:1047A00044F22900FFF774F98DF807900DF1070125
:1047B00044F22A00FFF76CF98DF807600DF107014C
:1047C00044F22B00FFF764F98DF807A00DF1070103
:1047D00044F22C00FFF75CF98DF807A00DF10701FA
:1047E00044F22D00FFF754F90E238DF807300DF138
:1047F000070144F22E00FFF74BF937468DF80760AA
:104800000DF1070144F22F00FFF742F94FF6FF7157
:1048100044F20230FFF76EFA214644F20430FFF70B
:1048200069FA8DF807400DF1070144F20630FFF7F1
:104830002FF98DF807A00DF1070144F20830FFF7BA
:1048400027F96C238DF807300DF107014FF48A40EA
:10485000FFF71EF9C4238DF807300DF1070144F26C
:104860000150FFF715F940268DF807600DF107019B
:1048700044F20250FFF70CF98DF807A00DF1070183
:1048800044F20350FFF704F939464FF48C40FFF728
:1048900031FA8DF807700DF107014FF49040FFF7E2
:1048A000F7F88DF807800DF1070144F61300FFF7C4
:1048B000EFF88DF807600DF1070144F61F00FFF7D0
:1048C000E7F8782144F62800FFF714FA60238DF802
:1048D00007300DF1070144F63700FFF7D9F82A2316
:1048E0008DF807300DF107014FF49640FFF7D0F82F
:1048F0008DF807400DF1070144F60D30FFF7C8F8B9
:1049000040F242414FF49A40FFF7F4F9D1238DF879
:1049100007300DF1070144F60250FFF7B9F8932371
:104920008DF807300DF1070144F60350FFF7B0F89A
:10493000F5238DF807300DF1070144F60450FFF719
:10494000A7F8C1238DF807300DF1070144F6055093
:10495000FFF79EF8F3238DF807300DF107014FF4B0
:10496000A040FFF795F811278DF807700DF10701AA
:1049700045F20100FFF78CF88DF807400DF10701B3
:1049800045F20400FFF784F88DF807400DF10701A8
:1049900045F20A00FFF77CF88DF807400DF107019A
:1049A00045F20B00FFF774F88DF807400DF1070191
:1049B00045F23200FFF76CF88DF807400DF1070162
:1049C00045F24000FFF764F80C238DF807300DF135
:1049D000070145F25000FFF75BF810214FF4AA40A1
:1049E000FFF788F940F20F1145F20250FFF782F904
:1049F0008DF807400DF1070145F20130FFF748F847
:104A000023258DF807500DF1070145F20230FFF71D
:104A10003FF822238DF807300DF1070145F20330EE
:104A2000FFF736F88DF807600DF1070145F2043005
:104A3000FFF72EF84FF031088DF807800DF10701D0
:104A400045F20530FFF724F88DF807500DF1070106
:104A500045F20630FFF71CF854238DF807300DF1AE
:104A6000070145F20730FFF713F803268DF80760BA
:104A70000DF1070145F20830FFF70AF84FF0190968
:104A80008DF807900DF1070145F20930FFF700F8A6
:104A90004FF0090A8DF807A00DF1070145F20A3021
:104AA000FEF7F6FF01258DF807500DF1070145F2DD
:104AB0000B30FEF7EDFF8DF807500DF1070145F2C1
:104AC0000C30FEF7E5FF8DF807A00DF1070145F268
:104AD0000D30FEF7DDFF8DF807900DF1070145F26F
:104AE0000E30FEF7D5FF8DF807600DF1070145F296
:104AF0000F30FEF7CDFF21464FF40040FFF7FAF8E4
:104B0000214648F20200FFF7F5F8214648F204007A
:104B1000FFF7F0F8214648F20600FFF7EBF88DF8B2
:104B200007400DF1070148F20800FEF7B1FF8DF8CC
:104B300007400DF1070143F23860FEF7A9FF8DF839
:104B400007800DF1070143F20510FEF7A1FFF923DD
:104B50008DF807300DF1070143F21A00FEF798FFB8
:104B60004FF4F06143F20750FFF784F84FF0050867
:104B70008DF807800DF1070144F64B00FEF788FF22
:104B80008DF807600DF1070144F60500FEF780FF80
:104B90008DF807500DF1070143F20160FEF778FF31
:104BA0008DF807500DF107014FF48070FEF770FF8C
:104BB000404602F00BFC8DF807700DF1070143F23F
:104BC0000510FEF765FFF1238DF807300DF10701A1
:104BD00043F21A00FEF75CFF8DF807400DF1070164
:104BE00044F60500FEF754FFF0238DF807300DF171
:104BF000070143F21A00FEF74BFF8DF807400DF155
:104C0000070143F20820FEF743FF8DF807400DF13E
:104C1000070143F22A00FEF73BFF8DF807400DF134
:104C2000070143F22A00FEF733FF8DF807400DF12C
:104C3000070143F22A00FEF72BFF8DF807400DF124
:104C4000070143F22A00FEF723FF8DF807400DF11C
:104C5000070143F22A00FEF71BFF8DF807400DF114
:104C6000070143F20160FEF713FF8DF807400DF1D5
:104C7000070143F23860FEF70BFF10238DF8073071
:104C80000DF1070143F20820FEF702FFA0238DF883
:104C900007300DF1070143F20820FEF7F9FE8DF809
:104CA00007400DF107014FF48070FEF7F1FE054B50
:104CB00083F85A40A3F85440A3F85640204603B066
:104CC000BDE8F08F9000002400B583B001238DF87B
:104CD00007300DF107014FF48070FEF7D9FE282050
:104CE00002F074FB002003B05DF804FB10B582B045
:104CF00000248DF807400DF107014FF48070FEF796
:104D0000C7FE1E2002F062FB204602B010BD10B5A7
:104D100082B0044603018DF807300DF1070143F21C
:104D20000250FEF7B5FE23118DF807300DF1070193
:104D300043F20150FEF7ACFE240B8DF807400DF155
:104D400007014FF45450FEF7A3FE02B010BD00005F
:104D50002DE9F043079F089E614CB4F812E0B4F8C7
:104D600014802589B4F80AC0B4F81690248B4D45F8
:104D700077D3A44575D3B5EB090548BF01350EEBD4
:104D800065051580BCEB040C48BF0CF1010C08EB69
:104D90006C0CA3F800C0B2F800E0B3F80080504DEE
:104DA000B5F816C02C8BB5F81E902D8CCC455DD374
:104DB000AC425BD3BCEB090C48BF0CF1010C0EEB11
:104DC0006C0CA0F800C0641B48BF013408EB6404FD
:104DD0000C80434C94F82340002C4CD1148814F0E0
:104DE000010F01D00134A4B214801C8814F0010F0B
:104DF00001D00134A4B21C8004881588641B04808F
:104E00000C881D88641B0C80048814F0010F01D0ED
:104E10000134A4B20480088810F0010F01D00130E1
:104E200080B208802E491288C88A02443A801B88C2
:104E30000A8B13449BB2338091F825200AB1013BC1
:104E400033803B8813F0010F01D101339BB23B80CB
:104E5000338813F0010F01D101339BB23380BDE8D9
:104E6000F083A2F800E0A3F8008094E7A0F800E047
:104E7000A1F80080ADE7148814F0010F01D00134CF
:104E8000A4B214801C8814F0010F01D00134A4B224
:104E90001C8008240480042008801149C98A11F06C
:104EA000030F03D021F00301014489B239800C497A
:104EB000098B11F0030F03D021F00301043189B2F3
:104EC0003180074890F8250008B1023931801288F6
:104ED00039880A443A801B88328813443380BEE7FD
:104EE0009000002410B5164A546C936BB3FBF0F09D
:104EF00000EB80004300106DB3FBF0F3A34238BF1A
:104F00002346D364A4B2181BA2F85600926C9342B5
:104F100004D90B4BDA64141BA3F8564011B1084BAB
:104F2000DA6C5A64064CB4F84C1043F60E00FEF7E7
:104F3000E1FEB4F8501043F60C00FEF7DBFE10BDA6
:104F40009000002410B5284BD863012838BF0120F9
:104F50005A6C998E531A984288BF4218224BDA64D1
:104F60009B6C934201D2204AD3641F4A146CA04226
:104F700038BF204684B25B1A9C4228BF1C46A4B2AC
:104F800092F85A3023B3D16C936B126DB3FBF2F3EA
:104F900003EB83035B00B3FBF1F39BB2A3F2291293
:104FA00092B2082A08D9933B9BB2032B0AD800215E
:104FB0009220FFF797FF12E000214FF49470FFF763
:104FC00091FF0CE089B243F60E00FEF793FE06E077
:104FD000054BB3F84C1043F60E00FEF78BFE20464F
:104FE000FFF795FE10BD00BF90000024F0B587B01C
:104FF000FFF77CFE0023ADF81630ADF81430ADF8A5
:105000001230ADF81030ADF80E30ADF80C3003AB07
:1050100001930DF10E03009304AB0DF1120205A9EB
:105020000DF11600FFF794FEBDF80E50BDF81060AC
:10503000BDF80C40BDF81210C1F30C014FF46050E4
:10504000FEF758FEC6F30B0143F60200FEF752FED0
:10505000C5F30C0143F60400FEF74CFEC4F30B014C
:1050600043F60600FEF746FEBDF81470D34CE68BFF
:10507000258CBDF81610C1F30B0143F61000FEF7A6
:1050800039FEC7F30B0143F61200FEF733FEC6F3F9
:105090000C0143F60800FEF72DFEC5F30B0143F6A5
:1050A0000A00FEF727FEE56C216DC1F30E0143F601
:1050B0000C00FEF71FFEC5F30E0143F60E00FEF7CF
:1050C00019FEA08FFFF73EFFE38EA3F1800292B29C
:1050D000B2F5F06F02D3802B38BF80235B009BB208
:1050E000C3F30A0292B213F4E06114D013F4C06F58
:1050F00004D15408083CA4B201210DE013F4806FE0
:1051000004D194080C3CA4B2032105E0D408083C67
:10511000A4B2072100E01446A84DEA868DF80B10D2
:105120000DF10B0143F20850FEF7B2FC8DF80B4075
:105130000DF10B0143F20950FEF7AAFC95F823305C
:10514000012B00F0DA8000248DF80B400DF10B01EB
:1051500043F23260FEF79CFC20238DF80B300DF1FA
:105160000B0143F26B70FEF793FC8DF80B400DF1D1
:105170000B0143F62000FEF78BFC8DF80B400DF180
:105180000B0143F62100FEF783FC01248DF80B4050
:105190000DF10B0143F61400FEF77AFC8DF80B407D
:1051A0000DF10B0143F61500FEF772FC8DF80B4074
:1051B0000DF10B0143F62A00FEF76AFC8DF80B4057
:1051C0000DF10B0143F62B00FEF762FC04238DF872
:1051D0000B300DF10B0143F63000FEF759FC8DF852
:1051E0000B400DF10B0143F63600FEF751FC402455
:1051F0008DF80B400DF10B0144F20100FEF748FC65
:105200008DF80B400DF10B0144F20250FEF740FC0B
:105210006A4B93F824400DF10B0143F62100FEF791
:1052200053FC9DF80B30002C00F0C18043F00603C6
:105230008DF80B300DF10B0143F62100FEF728FC31
:105240005E4B93F825400DF10B0143F62000FEF76D
:105250003BFC9DF80B30002C00F0AC8043F00603C3
:105260008DF80B300DF10B0143F62000FEF710FC1A
:1052700040F2CF7144F22200FEF73CFD4FF416617C
:1052800044F22400FEF736FD40F66F1144F226008A
:10529000FEF730FD04238DF80B300DF10B0144F2C5
:1052A0000160FEF7F5FB60238DF80B300DF10B016B
:1052B00044F63700FEF7ECFB8D238DF80B300DF133
:1052C0000B0145F20200FEF7E3FB3C4CB4F85E1024
:1052D00045F20C00FEF70EFDB4F8601045F20E002A
:1052E000FEF708FDB4F8621045F21000FEF702FD6B
:1052F000FFF7EAFC002007B0F0BD05238DF80B3066
:105300000DF10B0143F23260FEF7C2FB40238DF832
:105310000B300DF10B0143F26B70FEF7B9FB00236C
:105320008DF80B300DF10B0143F62000FEF7B0FBBA
:1053300001238DF80B300DF10B0143F62100FEF730
:10534000A7FB03248DF80B400DF10B0143F614006D
:10535000FEF79EFB8DF80B400DF10B0143F62A0082
:10536000FEF796FB08238DF80B300DF10B0143F689
:105370003000FEF78DFB02238DF80B300DF10B0191
:1053800043F63600FEF784FB50238DF80B300DF109
:105390000B0144F20100FEF77BFB44238DF80B3038
:1053A0000DF10B0144F20250FEF772FB30E703F0FF
:1053B000F9033DE703F0F90352E700BF9000002432
:1053C00000B583B00DF1070145F29360FEF77CFB59
:1053D0009DF8070003B05DF804FB000008B501224A
:1053E0000349044810F02EF9003818BF012008BD09
:1053F00050830724BC62072408B50122002103481A
:1054000010F020F9003818BF012008BDBC62072445
:1054100000B583B00023009301AA6946064810F046
:10542000A9FD38B9019B5889009B03FB00F003B02C
:105430005DF804FB0020FAE75083072400B583B031
:105440000020019001AA02210DF0ECFF019803B0A9
:105450005DF804FB2DE9F041DEB005460F469046AD
:105460001E46124948A810F0F4FC00233370B8F12E
:10547000000F16D01C46694648A810F054FD80B9AC
:105480009DF81A306BB13A460DF11A01284611F019
:1054900021F93078013030700134E4B23D44A04548
:1054A000E9D100205EB0BDE8F08100BF687101085D
:1054B00008B5844630B101608280C380029A826060
:1054C000039AC260DCF80C2042B103EB83035B005B
:1054D000D360DCF80C000AF04FFF00B908BDFCF700
:1054E00015FDFBE730B108B54FF40051024804F058
:1054F00023FD08BD00207047000802582DE9F04345
:1055000083B016461E4C228AB4B2A24204D80924A3
:10551000204603B0BDE8F08307460D46DFF8608003
:10552000D8F80C900021484611F0E2F867F07F03AC
:1055300089F80030134F00224FF40041384604F040
:1055400001FDD8F80C1064230093631C0A460E4832
:105550000AF0AAFA044601224FF40041384604F04A
:10556000F1FC24B1022C14BF00240824D0E7D8F8A1
:105570000C1032460131284611F0ACF8C8E700BFE4
:105580002001002400000258B858072408B5012261
:10559000FFF7B4FF08BD000070B594B2104B1B8A32
:1055A000A34201D8092070BD0D4EF36803F8010B2A
:1055B000184611F08FF80B4D00224FF40041284699
:1055C00004F0C0FC6423621CF168074809F0DCFFAA
:1055D00001224FF40041284604F0B4FC0020E2E729
:1055E0002001002400000258B858072400B583B0F9
:1055F0008DF8071001220DF10701FFF7CDFF03B071
:105600005DF804FB70B582B004460D4616460DF1F8
:105610000701FFF7BBFF6EB1012303FA05F19DF807
:1056200007301943C9B28DF807102046FFF7DEFF97
:1056300002B070BD012101FA05F59DF8071021EABD
:105640000501F0E7F0B583B007460D4616461C4647
:105650000DF10701FFF79AFF08B103B0F0BDA91BD8
:105660000131012202FA06F6013E8E4004FA01F1F0
:10567000C9B29DF8074024EA0604314021438DF861
:1056800007103846FFF7B2FFE7E700B583B00B0A13
:1056900043EA0123ADF8063002220DF10601FFF7BF
:1056A0007BFF03B05DF804FB08B5024604216A20C5
:1056B000FFF7A8FF08BD10B504460E2201463B20A7
:1056C000FFF71CFF2378627822706370A378E2787A
:1056D000A270E3702379627922716371237A627A0E
:1056E00022726372A37AE27AA272E372237B627BF4
:1056F0002273637310BD00002D4BD3ED026A9FED42
:105700002D7A36EEC77AB0EEC77AB7EEC77A9FED3C
:10571000265BB4EEC57BF1EE10FA05D5890090FB4F
:10572000F1F0404200B270479FED237A36EEC77A1F
:10573000B0EEC77AB7EEC77A9FED1B5BB4EEC57BC0
:10574000F1EE10FA05D5490090FBF1F0404200B2AD
:1057500070479FED1A7A36EEC77AB0EEC77AB7EE89
:10576000C77A9FED115BB4EEC57BF1EE10FA04D55C
:1057700090FBF1F0404200B270479FED117A36EE97
:10578000C77AB0EEC77AB7EEC77A9FED076BB4EE73
:10579000C67BF1EE10FA05D5430093FBF1F04042D1
:1057A00000B27047002070472D431CEBE2361A3FD1
:1057B000200100240000FA3B00007A3C0000FA3C83
:1057C00000007A3D2DE9F04184B004460021132009
:1057D000FFF75BFF10B104B0BDE8F0810021152098
:1057E000FFF753FF0028F6D100211720FFF74DFFE8
:1057F0000028F0D14FF47A7090FBF4F000F101082A
:10580000404601F0E3FD0A2400252E462F4640467F
:1058100001F0DCFD6846FFF74EFFBDF908301F447C
:10582000BDF90A301E44BDF90C301D44013CEED1D7
:105830000A213846FFF760FF04460A213046FFF789
:105840005BFF06460A212846FFF756FF0546A1B230
:105850001320FFF71AFF0028BDD1B1B21520FFF7C2
:1058600014FF0028B7D1A9B21720FFF70EFFB2E747
:1058700010B584B004466846FFF71DFF03460028B4
:105880005CD1304A92ED026ABDF9081007EE101A99
:10589000B8EEC77A27EE067ADFED2B6A27EE267A76
:1058A000BDEEC77A84ED007ABDF90A1007EE101A32
:1058B000B8EEC77A27EE067A27EE267ABDEEC77ACB
:1058C00084ED017ABDF90C1007EE901AF8EEE77A34
:1058D00067EE867A67EEA67AFDEEE77AC4ED027A85
:1058E00092ED016ABDF9002007EE102AB8EEC77AE2
:1058F00027EE067ADFED156A27EE267ABDEEC77A27
:1059000084ED037ABDF9022007EE102AB8EEC77ABB
:1059100027EE067A27EE267ABDEEC77A84ED047A62
:10592000BDF9042007EE902AF8EEE77A67EE867A52
:1059300067EEA67AFDEEE77AC4ED057A184604B064
:1059400010BD00BF200100240000C84200007A44BE
:1059500008B5012207216B20FFF754FE08BD08B5EA
:1059600001461920FFF742FE08BD08B50346032291
:1059700002211A20FFF766FE08BD08B50346032280
:1059800002211D20FFF75EFE08BD000008B503469A
:10599000032806D8DFE800F0020B0F130A4A0B4970
:1059A0009160022204211B20FFF74CFE08BD064A2D
:1059B00007499160F5E7044A06499160F1E7024A18
:1059C00005499160EDE700BF200100240000FA3B8B
:1059D00000007A3C0000FA3C00007A3D08B503461E
:1059E000032807D8DFE800F0020C11160C4A4FF02C
:1059F00062515160022204211C20FFF723FE08BDE2
:105A0000074A4FF064515160F4E7054A4FF0665180
:105A10005160EFE7024A4FF068515160EAE700BF7A
:105A20002001002408B5024606216B20FFF7EAFD9D
:105A300008BD00B583B000238DF807300DF10701D4
:105A40007520FFF7A3FD48B99DF80730702B05D0EE
:105A5000013BDBB2FD2B8CBF0420062003B05DF8B8
:105A600004FB0000044B1A68936823F0E04300F045
:105A7000E040034393607047B858072438B50546A3
:105A800001F09EFC952805D9FFF7D3FF044630B1FD
:105A9000204638BDC0F1960001F098FCF4E7FFF70E
:105AA00057FF642001F092FC0D216A20FFF79EFD54
:105AB00004460028ECD1642001F088FC0120FFF7A7
:105AC000F3FD4FF47A70B0FBF5F00138C0B2FFF788
:105AD00046FF0120FFF749FF0220FFF757FF032091
